{
  "contractName": "MessagePost",
  "abi": [
    {
      "constant": true,
      "inputs": [],
      "name": "owner",
      "outputs": [
        {
          "name": "",
          "type": "address"
        }
      ],
      "payable": false,
      "stateMutability": "view",
      "type": "function"
    },
    {
      "inputs": [],
      "payable": false,
      "stateMutability": "nonpayable",
      "type": "constructor"
    },
    {
      "constant": false,
      "inputs": [
        {
          "name": "_header",
          "type": "string"
        },
        {
          "name": "_body",
          "type": "string"
        },
        {
          "name": "_owner",
          "type": "address"
        }
      ],
      "name": "createMessage",
      "outputs": [
        {
          "name": "",
          "type": "address"
        }
      ],
      "payable": false,
      "stateMutability": "nonpayable",
      "type": "function"
    },
    {
      "constant": false,
      "inputs": [],
      "name": "getMessageLength",
      "outputs": [
        {
          "name": "",
          "type": "uint256"
        }
      ],
      "payable": false,
      "stateMutability": "nonpayable",
      "type": "function"
    },
    {
      "constant": true,
      "inputs": [
        {
          "name": "pos",
          "type": "uint256"
        }
      ],
      "name": "getMessage",
      "outputs": [
        {
          "name": "header",
          "type": "string"
        },
        {
          "name": "body",
          "type": "string"
        },
        {
          "name": "owner",
          "type": "address"
        }
      ],
      "payable": false,
      "stateMutability": "view",
      "type": "function"
    }
  ],
  "bytecode": "0x608060405234801561001057600080fd5b5060008054600160a060020a031916331790556105ae806100326000396000f3006080604052600436106100615763ffffffff7c010000000000000000000000000000000000000000000000000000000060003504166386f79edb81146100665780638da5cb5b14610175578063a500abb0146101a6578063f5701ede14610248575b600080fd5b34801561007257600080fd5b5061007e60043561026f565b60405180806020018060200184600160a060020a0316600160a060020a03168152602001838103835286818151815260200191508051906020019080838360005b838110156100d75781810151838201526020016100bf565b50505050905090810190601f1680156101045780820380516001836020036101000a031916815260200191505b50838103825285518152855160209182019187019080838360005b8381101561013757818101518382015260200161011f565b50505050905090810190601f1680156101645780820380516001836020036101000a031916815260200191505b509550505050505060405180910390f35b34801561018157600080fd5b5061018a6103d9565b60408051600160a060020a039092168252519081900360200190f35b3480156101b257600080fd5b506040805160206004803580820135601f810184900484028501840190955284845261018a94369492936024939284019190819084018382808284375050604080516020601f89358b018035918201839004830284018301909452808352979a99988101979196509182019450925082915084018382808284375094975050509235600160a060020a031693506103e892505050565b34801561025457600080fd5b5061025d6104c4565b60408051918252519081900360200190f35b60608060008060018581548110151561028457fe5b6000918252602091829020600260039092020181810154815460408051601f600019600185811615610100029190910190941696909604958601879004870281018701909152848152929550859490850193600160a060020a03909216929185918301828280156103365780601f1061030b57610100808354040283529160200191610336565b820191906000526020600020905b81548152906001019060200180831161031957829003601f168201915b5050855460408051602060026001851615610100026000190190941693909304601f8101849004840282018401909252818152959850879450925084019050828280156103c45780601f10610399576101008083540402835291602001916103c4565b820191906000526020600020905b8154815290600101906020018083116103a757829003601f168201915b50505050509150935093509350509193909250565b600054600160a060020a031681565b60006103f26104cb565b50604080516060810182528581526020808201869052600160a060020a03851692820192909252600180548082018083556000929092528251805193949293859360039093027fb10e2d527612073b26eecdfd717e6a320cf44b4afac2b0732d9fcbe2b7fa0cf601926104699284929101906104ea565b50602082810151805161048292600185019201906104ea565b50604091909101516002909101805473ffffffffffffffffffffffffffffffffffffffff1916600160a060020a03928316179055600054169695505050505050565b6001545b90565b6040805160608181018352808252602082015260009181019190915290565b828054600181600116156101000203166002900490600052602060002090601f016020900481019282601f1061052b57805160ff1916838001178555610558565b82800160010185558215610558579182015b8281111561055857825182559160200191906001019061053d565b50610564929150610568565b5090565b6104c891905b80821115610564576000815560010161056e5600a165627a7a723058208924f814e38aebe4e732fc381a73a751078bc2097ff228f6558006f9e502fdc30029",
  "source": "pragma solidity ^0.4.18;\r\n\r\ncontract MessagePost {\r\n\r\n    address public owner;\r\n\r\n    struct Message{\r\n        string header;\r\n        string body;\r\n        address owner;\r\n    }\r\n\r\n    // @dev Array containing all messages in existence\r\n    Message[] messages;\r\n\r\n    function MessagePost(){\r\n        owner = msg.sender;\r\n    }\r\n\r\n    function createMessage(\r\n        string _header,\r\n        string _body,\r\n        address _owner\r\n    ) public returns (address){\r\n        Message memory _msg = Message({\r\n            header: _header,\r\n            body:   _body,\r\n            owner:  _owner\r\n        });\r\n\r\n        messages.push(_msg);\r\n\r\n        return owner;\r\n    }\r\n\r\n    function getMessageLength() public returns (uint){\r\n        return messages.length;\r\n    }\r\n\r\n    function getMessage(uint256 pos) public constant returns(string header, string body, address owner){\r\n        Message storage msg = messages[pos];\r\n        return (msg.header, msg.body, msg.owner);\r\n    }\r\n}\r\n",
  "sourcePath": "D:\\Personal\\truffle-voting-dapp\\truffle-voting-dapp-ropsten\\contracts\\MessagePost.sol",
  "compiler": {
    "name": "solc",
    "version": "0.4.24+commit.e67f0147.Emscripten.clang"
  },
  "schemaVersion": "2.0.1",
  "updatedAt": "2018-06-28T02:52:18.417Z"
}