{
  "contractName": "MessagePost",
  "abi": [
    {
      "constant": true,
      "inputs": [],
      "name": "owner",
      "outputs": [
        {
          "name": "",
          "type": "address"
        }
      ],
      "payable": false,
      "stateMutability": "view",
      "type": "function"
    },
    {
      "inputs": [],
      "payable": false,
      "stateMutability": "nonpayable",
      "type": "constructor"
    },
    {
      "constant": false,
      "inputs": [
        {
          "name": "_header",
          "type": "string"
        },
        {
          "name": "_body",
          "type": "string"
        },
        {
          "name": "_date",
          "type": "string"
        },
        {
          "name": "_owner",
          "type": "address"
        }
      ],
      "name": "createMessage",
      "outputs": [
        {
          "name": "",
          "type": "address"
        }
      ],
      "payable": false,
      "stateMutability": "nonpayable",
      "type": "function"
    },
    {
      "constant": false,
      "inputs": [],
      "name": "getMessageLength",
      "outputs": [
        {
          "name": "",
          "type": "uint256"
        }
      ],
      "payable": false,
      "stateMutability": "nonpayable",
      "type": "function"
    },
    {
      "constant": true,
      "inputs": [
        {
          "name": "pos",
          "type": "uint256"
        }
      ],
      "name": "getMessage",
      "outputs": [
        {
          "name": "header",
          "type": "string"
        },
        {
          "name": "body",
          "type": "string"
        },
        {
          "name": "date",
          "type": "string"
        },
        {
          "name": "owner",
          "type": "address"
        }
      ],
      "payable": false,
      "stateMutability": "view",
      "type": "function"
    }
  ],
  "bytecode": "0x608060405234801561001057600080fd5b5060008054600160a060020a03191633179055610710806100326000396000f3006080604052600436106100615763ffffffff7c01000000000000000000000000000000000000000000000000000000006000350416630139a3d3811461006657806386f79edb146101625780638da5cb5b146102cd578063f5701ede146102e2575b600080fd5b34801561007257600080fd5b506040805160206004803580820135601f810184900484028501840190955284845261014694369492936024939284019190819084018382808284375050604080516020601f89358b018035918201839004830284018301909452808352979a99988101979196509182019450925082915084018382808284375050604080516020601f89358b018035918201839004830284018301909452808352979a99988101979196509182019450925082915084018382808284375094975050509235600160a060020a0316935061030992505050565b60408051600160a060020a039092168252519081900360200190f35b34801561016e57600080fd5b5061017a600435610406565b60408051600160a060020a0383166060820152608080825286519082015285519091829160208084019284019160a08501918a019080838360005b838110156101cd5781810151838201526020016101b5565b50505050905090810190601f1680156101fa5780820380516001836020036101000a031916815260200191505b50848103835287518152875160209182019189019080838360005b8381101561022d578181015183820152602001610215565b50505050905090810190601f16801561025a5780820380516001836020036101000a031916815260200191505b50848103825286518152865160209182019188019080838360005b8381101561028d578181015183820152602001610275565b50505050905090810190601f1680156102ba5780820380516001836020036101000a031916815260200191505b5097505050505050505060405180910390f35b3480156102d957600080fd5b50610146610604565b3480156102ee57600080fd5b506102f7610613565b60408051918252519081900360200190f35b600061031361061a565b50604080516080810182528681526020808201879052918101859052600160a060020a0384166060820152600180548082018083556000929092528251805193949293859360049093027fb10e2d527612073b26eecdfd717e6a320cf44b4afac2b0732d9fcbe2b7fa0cf6019261038e92849291019061064c565b5060208281015180516103a7926001850192019061064c565b50604082015180516103c391600284019160209091019061064c565b50606091909101516003909101805473ffffffffffffffffffffffffffffffffffffffff1916600160a060020a0392831617905560005416979650505050505050565b606080606060008060018681548110151561041d57fe5b600091825260209182902060049190910201600381015481546040805160026101006001808616159190910260001901909416819004601f8101889004880283018801909352828252949650869592860194860193600160a060020a031692909186918301828280156104d15780601f106104a6576101008083540402835291602001916104d1565b820191906000526020600020905b8154815290600101906020018083116104b457829003601f168201915b5050865460408051602060026001851615610100026000190190941693909304601f81018490048402820184019092528181529599508894509250840190508282801561055f5780601f106105345761010080835404028352916020019161055f565b820191906000526020600020905b81548152906001019060200180831161054257829003601f168201915b5050855460408051602060026001851615610100026000190190941693909304601f8101849004840282018401909252818152959850879450925084019050828280156105ed5780601f106105c2576101008083540402835291602001916105ed565b820191906000526020600020905b8154815290600101906020018083116105d057829003601f168201915b505050505091509450945094509450509193509193565b600054600160a060020a031681565b6001545b90565b6080604051908101604052806060815260200160608152602001606081526020016000600160a060020a031681525090565b828054600181600116156101000203166002900490600052602060002090601f016020900481019282601f1061068d57805160ff19168380011785556106ba565b828001600101855582156106ba579182015b828111156106ba57825182559160200191906001019061069f565b506106c69291506106ca565b5090565b61061791905b808211156106c657600081556001016106d05600a165627a7a72305820bf6908ffd7883409bdd03fc426558fd269c0ed36cefe72d025ed507cec6e32ea0029",
  "source": "pragma solidity ^0.4.18;\r\n\r\ncontract MessagePost {\r\n\r\n    address public owner;\r\n\r\n    struct Message{\r\n        string header;\r\n        string body;\r\n\t\tstring date;\r\n        address owner;\r\n    }\r\n\r\n    // @dev Array containing all messages in existence\r\n    Message[] messages;\r\n\r\n    function MessagePost(){\r\n        owner = msg.sender;\r\n    }\r\n\t\r\n\t// Creates message on contract\r\n    function createMessage(\r\n        string _header,\r\n        string _body,\r\n\t\tstring _date,\r\n        address _owner\r\n    ) public returns (address){\r\n        Message memory _msg = Message({\r\n            header: _header,\r\n            body:   _body,\r\n\t\t\tdate:   _date,\r\n            owner:  _owner\r\n        });\r\n\r\n        messages.push(_msg);\r\n\r\n        return owner;\r\n    }\r\n\r\n    function getMessageLength() public returns (uint){\r\n        return messages.length;\r\n    }\r\n\r\n    function getMessage(uint256 pos) public constant returns(string header, string body, string date, address owner){\r\n        Message storage msg = messages[pos];\r\n        return (msg.header, msg.body, msg.date, msg.owner);\r\n    }\r\n}\r\n",
  "sourcePath": "D:\\Personal\\BlockBook\\git\\contracts\\MessagePost.sol",
  "compiler": {
    "name": "solc",
    "version": "0.4.24+commit.e67f0147.Emscripten.clang"
  },
  "schemaVersion": "2.0.1",
  "updatedAt": "2018-07-05T03:52:53.012Z"
}