{
  "contractName": "SpeechToken",
  "abi": [
    {
      "constant": true,
      "inputs": [],
      "name": "name",
      "outputs": [
        {
          "name": "",
          "type": "string"
        }
      ],
      "payable": false,
      "stateMutability": "view",
      "type": "function"
    },
    {
      "constant": true,
      "inputs": [],
      "name": "decimals",
      "outputs": [
        {
          "name": "",
          "type": "uint8"
        }
      ],
      "payable": false,
      "stateMutability": "view",
      "type": "function"
    },
    {
      "constant": false,
      "inputs": [
        {
          "name": "newOwner",
          "type": "address"
        }
      ],
      "name": "transferOwnerShip",
      "outputs": [],
      "payable": false,
      "stateMutability": "nonpayable",
      "type": "function"
    },
    {
      "constant": true,
      "inputs": [],
      "name": "owner",
      "outputs": [
        {
          "name": "",
          "type": "address"
        }
      ],
      "payable": false,
      "stateMutability": "view",
      "type": "function"
    },
    {
      "constant": true,
      "inputs": [],
      "name": "symbol",
      "outputs": [
        {
          "name": "",
          "type": "string"
        }
      ],
      "payable": false,
      "stateMutability": "view",
      "type": "function"
    },
    {
      "inputs": [],
      "payable": false,
      "stateMutability": "nonpayable",
      "type": "constructor"
    },
    {
      "anonymous": false,
      "inputs": [
        {
          "indexed": true,
          "name": "_from",
          "type": "address"
        },
        {
          "indexed": true,
          "name": "_to",
          "type": "address"
        },
        {
          "indexed": false,
          "name": "_value",
          "type": "uint256"
        }
      ],
      "name": "Transfer",
      "type": "event"
    },
    {
      "anonymous": false,
      "inputs": [
        {
          "indexed": true,
          "name": "_owner",
          "type": "address"
        },
        {
          "indexed": true,
          "name": "_spender",
          "type": "address"
        },
        {
          "indexed": false,
          "name": "_value",
          "type": "uint256"
        }
      ],
      "name": "Approval",
      "type": "event"
    },
    {
      "constant": true,
      "inputs": [],
      "name": "totalSupply",
      "outputs": [
        {
          "name": "totalSupply",
          "type": "uint256"
        }
      ],
      "payable": false,
      "stateMutability": "view",
      "type": "function"
    },
    {
      "constant": false,
      "inputs": [
        {
          "name": "_owner",
          "type": "address"
        }
      ],
      "name": "getBalanceInEth",
      "outputs": [
        {
          "name": "balance",
          "type": "uint256"
        }
      ],
      "payable": false,
      "stateMutability": "nonpayable",
      "type": "function"
    },
    {
      "constant": true,
      "inputs": [
        {
          "name": "_owner",
          "type": "address"
        }
      ],
      "name": "balanceOf",
      "outputs": [
        {
          "name": "balance",
          "type": "uint256"
        }
      ],
      "payable": false,
      "stateMutability": "view",
      "type": "function"
    },
    {
      "constant": false,
      "inputs": [
        {
          "name": "_to",
          "type": "address"
        },
        {
          "name": "_amount",
          "type": "uint256"
        }
      ],
      "name": "transfer",
      "outputs": [
        {
          "name": "success",
          "type": "bool"
        }
      ],
      "payable": false,
      "stateMutability": "nonpayable",
      "type": "function"
    },
    {
      "constant": false,
      "inputs": [
        {
          "name": "_from",
          "type": "address"
        },
        {
          "name": "_to",
          "type": "address"
        },
        {
          "name": "_amount",
          "type": "uint256"
        }
      ],
      "name": "transferFrom",
      "outputs": [
        {
          "name": "success",
          "type": "bool"
        }
      ],
      "payable": false,
      "stateMutability": "nonpayable",
      "type": "function"
    },
    {
      "constant": false,
      "inputs": [
        {
          "name": "_spender",
          "type": "address"
        },
        {
          "name": "_amount",
          "type": "uint256"
        }
      ],
      "name": "approve",
      "outputs": [
        {
          "name": "success",
          "type": "bool"
        }
      ],
      "payable": false,
      "stateMutability": "nonpayable",
      "type": "function"
    },
    {
      "constant": true,
      "inputs": [
        {
          "name": "_owner",
          "type": "address"
        },
        {
          "name": "_spender",
          "type": "address"
        }
      ],
      "name": "allowance",
      "outputs": [
        {
          "name": "remaining",
          "type": "uint256"
        }
      ],
      "payable": false,
      "stateMutability": "view",
      "type": "function"
    }
  ],
  "bytecode": "0x6080604052631dcd650060015534801561001857600080fd5b506000805433600160a060020a0319918216811790911617808255600154600160a060020a039091168252600260205260408220556106d390819061005d90396000f3006080604052600436106100b95763ffffffff7c010000000000000000000000000000000000000000000000000000000060003504166306fdde0381146100be578063095ea7b31461014857806318160ddd1461018057806323b872dd146101a7578063313ce567146101d157806370a08231146101fc5780637bd703e81461021d5780638863dd1a1461023e5780638da5cb5b1461026157806395d89b4114610292578063a9059cbb146102a7578063dd62ed3e146102cb575b600080fd5b3480156100ca57600080fd5b506100d36102f2565b6040805160208082528351818301528351919283929083019185019080838360005b8381101561010d5781810151838201526020016100f5565b50505050905090810190601f16801561013a5780820380516001836020036101000a031916815260200191505b509250505060405180910390f35b34801561015457600080fd5b5061016c600160a060020a0360043516602435610329565b604080519115158252519081900360200190f35b34801561018c57600080fd5b50610195610390565b60408051918252519081900360200190f35b3480156101b357600080fd5b5061016c600160a060020a0360043581169060243516604435610396565b3480156101dd57600080fd5b506101e6610462565b6040805160ff9092168252519081900360200190f35b34801561020857600080fd5b50610195600160a060020a0360043516610467565b34801561022957600080fd5b50610195600160a060020a0360043516610482565b34801561024a57600080fd5b5061025f600160a060020a0360043516610532565b005b34801561026d57600080fd5b50610276610578565b60408051600160a060020a039092168252519081900360200190f35b34801561029e57600080fd5b506100d3610587565b3480156102b357600080fd5b5061016c600160a060020a03600435166024356105be565b3480156102d757600080fd5b50610195600160a060020a036004358116906024351661067c565b60408051808201909152600c81527f53706565636820546f6b656e0000000000000000000000000000000000000000602082015281565b336000818152600360209081526040808320600160a060020a038716808552908352818420869055815186815291519394909390927f8c5be1e5ebec7d5bd14f71427d1e84f3dd0314c0f7b2291e5b200ac8c7c3b925928290030190a35060015b92915050565b60015490565b600160a060020a03831660009081526002602052604081205482118015906103be5750600082115b80156103e35750600160a060020a038316600090815260026020526040902054828101115b1561045757600160a060020a03808516600081815260026020908152604080832080548890039055938716808352918490208054870190558351868152935191937fddf252ad1be2c89b69c2b068fc378daa952ba7f163c4a11628f55a4df523b3ef929081900390910190a350600161045b565b5060005b9392505050565b601281565b600160a060020a031660009081526002602052604090205490565b600073__ConvertLib____________________________6396e4ee3d6104a784610467565b60026040518363ffffffff167c0100000000000000000000000000000000000000000000000000000000028152600401808381526020018281526020019250505060206040518083038186803b15801561050057600080fd5b505af4158015610514573d6000803e3d6000fd5b505050506040513d602081101561052a57600080fd5b505192915050565b600054600160a060020a0316331461054957600080fd5b6000805473ffffffffffffffffffffffffffffffffffffffff1916600160a060020a0392909216919091179055565b600054600160a060020a031681565b60408051808201909152600681527f5350454543480000000000000000000000000000000000000000000000000000602082015281565b3360009081526002602052604081205482118015906105dd5750600082115b80156106025750600160a060020a038316600090815260026020526040902054828101115b156106745733600081815260026020908152604080832080548790039055600160a060020a03871680845292819020805487019055805186815290519293927fddf252ad1be2c89b69c2b068fc378daa952ba7f163c4a11628f55a4df523b3ef929181900390910190a350600161038a565b50600061038a565b600160a060020a039182166000908152600360209081526040808320939094168252919091522054905600a165627a7a72305820e77cc17a2dfcd955b06aba921cc8b0f375252b5c4b61fa04d7ea72c76b2bd2f70029",
  "source": "pragma solidity ^0.4.18;\n\nimport \"./ConvertLib.sol\";\n\ncontract owned {\n    address public owner;\n\n    function owned() public {\n        owner = msg.sender;\n    }\n\n    modifier onlyOwner{\n        require(msg.sender == owner);\n        _;\n    }\n\n    function transferOwnerShip(address newOwner) onlyOwner public{\n        owner = newOwner;\n    }\n}\n\ninterface tokenRecipient { function receiveApproval(address _from, uint256 _value, address _token, bytes _extraData) public; }\n\ncontract ERC20Token {\n    // Get the total token supply\n    function totalSupply() constant returns (uint256 totalSupply);\n\n    // Get the account balance of another account with address _owner\n    function balanceOf(address _owner) constant returns (uint256 balance);\n\n    // Send _value amount of tokens to address _to\n    function transfer(address _to, uint256 _value) returns (bool success);\n\n    // Send _value amount of tokens from address _from to address _to\n    function transferFrom(address _from, address _to, uint256 _value) returns (bool success);\n\n    // Allow _spender to withdraw from your account, multiple times, up to the _value amount.\n    // If this function is called again it overwrites the current allowance with _value.\n    // this function is required for some DEX functionality\n    function approve(address _spender, uint256 _value) returns (bool success);\n\n    // Returns the amount which _spender is still allowed to withdraw from _owner\n    function allowance(address _owner, address _spender) constant returns (uint256 remaining);\n\n    // Triggered when tokens are transferred.\n    event Transfer(address indexed _from, address indexed _to, uint256 _value);\n\n    // Triggered whenever approve(address _spender, uint256 _value) is called.\n    event Approval(address indexed _owner, address indexed _spender, uint256 _value);\n }\n\ncontract SpeechToken is owned, ERC20Token{\n    string public constant symbol = \"SPEECH\";\n    string public constant name = \"Speech Token\";\n    uint8 public constant decimals = 18;\n    uint256 _totalSupply = 500000000;\n\n    // Balances for each account\n    mapping(address => uint256) balances;\n\n    // Owner of account approves the transfer of an amount to another account\n    mapping(address => mapping(address => uint256)) allowed;\n\n    // Functions with this modifier can only be executed by the owner\n    modifier onlyOwner(){\n        if(msg.sender != owner){\n            throw;\n        }\n\n        _;\n    }\n\n    // Constructor\n    function SpeechToken() {\n        owner = msg.sender;\n        balances[owner] = _totalSupply;\n    }\n\n    function totalSupply() constant returns (uint256 totalSupply){\n        return totalSupply = _totalSupply;\n    }\n\n    // Balance In Etherium\n    function getBalanceInEth(address _owner) returns(uint256 balance){\n        return ConvertLib.convert(balanceOf(_owner),2);\n    }\n\n    // Balance of a particular account\n    function balanceOf(address _owner) constant returns (uint256 balance){\n        return balances[_owner];\n    }\n\n    // Transfer the balance from owners' account to another account\n    function transfer(address _to, uint256 _amount) returns (bool success){\n        if(balances[msg.sender] >= _amount\n        && _amount > 0\n        && balances[_to] + _amount > balances[_to]){\n            balances[msg.sender] -= _amount;\n            balances[_to] += _amount;\n            Transfer(msg.sender, _to, _amount);\n            return true;\n        }else{\n            return false;\n        }\n    }\n\n    function transferFrom( address _from, address _to, uint256 _amount) returns (bool success){\n        if(balances[_from] >= _amount\n        && _amount > 0\n        && balances[_to] + _amount > balances[_to]){\n            balances[_from] -= _amount;\n            // allowed[_from][msg.sender] -= _amount;\n            balances[_to] += _amount;\n            Transfer(_from, _to, _amount);\n            return true;\n        }else{\n            return false;\n        }\n\n        // && allowed[_from][msg.sender] >= _amount\n    }\n\n    function approve(address _spender, uint256 _amount) returns (bool success){\n        allowed[msg.sender][_spender] = _amount;\n        Approval(msg.sender, _spender, _amount);\n        return true;\n    }\n\n    function allowance(address _owner, address _spender) constant returns (uint256 remaining){\n        return allowed[_owner][_spender];\n    }\n}\n",
  "sourcePath": "D:\\Personal\\truffle-voting-dapp\\truffle-voting-dapp-ropsten\\contracts\\SpeechToken.sol",
  "compiler": {
    "name": "solc",
    "version": "0.4.24+commit.e67f0147.Emscripten.clang"
  },
  "schemaVersion": "2.0.1",
  "updatedAt": "2018-06-28T02:52:18.433Z"
}