{
  "contractName": "Voting",
  "abi": [
    {
      "constant": true,
      "inputs": [
        {
          "name": "",
          "type": "uint256"
        }
      ],
      "name": "proposals",
      "outputs": [
        {
          "name": "title",
          "type": "string"
        },
        {
          "name": "voteCountPos",
          "type": "uint256"
        },
        {
          "name": "voteCountNeg",
          "type": "uint256"
        },
        {
          "name": "voteCountAbs",
          "type": "uint256"
        }
      ],
      "payable": false,
      "stateMutability": "view",
      "type": "function"
    },
    {
      "anonymous": false,
      "inputs": [],
      "name": "CreatedProposalEvent",
      "type": "event"
    },
    {
      "anonymous": false,
      "inputs": [],
      "name": "CreatedVoteEvent",
      "type": "event"
    },
    {
      "constant": true,
      "inputs": [],
      "name": "getNumProposals",
      "outputs": [
        {
          "name": "",
          "type": "uint256"
        }
      ],
      "payable": false,
      "stateMutability": "view",
      "type": "function"
    },
    {
      "constant": true,
      "inputs": [
        {
          "name": "proposalInt",
          "type": "uint256"
        }
      ],
      "name": "getProposal",
      "outputs": [
        {
          "name": "",
          "type": "uint256"
        },
        {
          "name": "",
          "type": "string"
        },
        {
          "name": "",
          "type": "uint256"
        },
        {
          "name": "",
          "type": "uint256"
        },
        {
          "name": "",
          "type": "uint256"
        },
        {
          "name": "",
          "type": "address[]"
        }
      ],
      "payable": false,
      "stateMutability": "view",
      "type": "function"
    },
    {
      "constant": false,
      "inputs": [
        {
          "name": "title",
          "type": "string"
        }
      ],
      "name": "addProposal",
      "outputs": [
        {
          "name": "",
          "type": "bool"
        }
      ],
      "payable": false,
      "stateMutability": "nonpayable",
      "type": "function"
    },
    {
      "constant": false,
      "inputs": [
        {
          "name": "proposalInt",
          "type": "uint256"
        },
        {
          "name": "voteValue",
          "type": "uint256"
        }
      ],
      "name": "vote",
      "outputs": [
        {
          "name": "",
          "type": "bool"
        }
      ],
      "payable": false,
      "stateMutability": "nonpayable",
      "type": "function"
    }
  ],
  "bytecode": "0x608060405234801561001057600080fd5b5061089e806100206000396000f30060806040526004361061006c5763ffffffff7c0100000000000000000000000000000000000000000000000000000000600035041663013cf08b81146100715780632fdae3c514610116578063798974dd14610183578063b384abef146101aa578063c7f758a8146101c5575b600080fd5b34801561007d57600080fd5b506100896004356102b2565b6040518080602001858152602001848152602001838152602001828103825286818151815260200191508051906020019080838360005b838110156100d85781810151838201526020016100c0565b50505050905090810190601f1680156101055780820380516001836020036101000a031916815260200191505b509550505050505060405180910390f35b34801561012257600080fd5b506040805160206004803580820135601f810184900484028501840190955284845261016f9436949293602493928401919081908401838280828437509497506103759650505050505050565b604080519115158252519081900360200190f35b34801561018f57600080fd5b50610198610438565b60408051918252519081900360200190f35b3480156101b657600080fd5b5061016f60043560243561043f565b3480156101d157600080fd5b506101dd600435610592565b604051808781526020018060200186815260200185815260200184815260200180602001838103835288818151815260200191508051906020019080838360005b8381101561023657818101518382015260200161021e565b50505050905090810190601f1680156102635780820380516001836020036101000a031916815260200191505b508381038252845181528451602091820191808701910280838360005b83811015610298578181015183820152602001610280565b505050509050019850505050505050505060405180910390f35b60008054829081106102c057fe5b60009182526020918290206006919091020180546040805160026001841615610100026000190190931692909204601f8101859004850283018501909152808252919350918391908301828280156103595780601f1061032e57610100808354040283529160200191610359565b820191906000526020600020905b81548152906001019060200180831161033c57829003601f168201915b5050505050908060010154908060020154908060030154905084565b600061037f6106fe565b6040517f0616bfbef63fbb3fb188ace13631901ead91828d4bc417e8d62b118462b60ff990600090a182815260008054600181018083559180528251805184926006027f290decd9548b62a8d60345a988386fc84ba6bc95484008f6362f93160ef3e56301916103f49183916020019061072e565b50602082810151600183015560408301516002830155606083015160038301556080830151805161042b92600585019201906107ac565b5060019695505050505050565b6000545b90565b60008060008481548110151561045157fe5b600091825260208083203384526004600690930201919091019052604090206001015460ff16151561058657826001148061048c5750826002145b806104975750826003145b15156104a257600080fd5b60008054859081106104b057fe5b9060005260206000209060060201905082600114156104da576001818101805490910190556104ff565b82600214156104f35760028101805460010190556104ff565b60038101805460010190555b33600081815260048301602090815260408083208781556001908101805460ff19168217905560058601805491820181558452918320909101805473ffffffffffffffffffffffffffffffffffffffff191690931790925590517fc8d0f117c265f186f11ddd2b492c5183055634fe9b702704eb82c0fe046636449190a16001915061058b565b600091505b5092915050565b600060606000806000606060008060008054905011156106f45760008054899081106105ba57fe5b90600052602060002090600602019050878160000182600101548360020154846003015485600501848054600181600116156101000203166002900480601f0160208091040260200160405190810160405280929190818152602001828054600181600116156101000203166002900480156106775780601f1061064c57610100808354040283529160200191610677565b820191906000526020600020905b81548152906001019060200180831161065a57829003601f168201915b50505050509450808054806020026020016040519081016040528092919081815260200182805480156106e057602002820191906000526020600020905b815473ffffffffffffffffffffffffffffffffffffffff1681526001909101906020018083116106b5575b505050505090509650965096509650965096505b5091939550919395565b60a06040519081016040528060608152602001600081526020016000815260200160008152602001606081525090565b828054600181600116156101000203166002900490600052602060002090601f016020900481019282601f1061076f57805160ff191683800117855561079c565b8280016001018555821561079c579182015b8281111561079c578251825591602001919060010190610781565b506107a8929150610827565b5090565b82805482825590600052602060002090810192821561081b579160200282015b8281111561081b578251825473ffffffffffffffffffffffffffffffffffffffff191673ffffffffffffffffffffffffffffffffffffffff9091161782556020909201916001909101906107cc565b506107a8929150610841565b61043c91905b808211156107a8576000815560010161082d565b61043c91905b808211156107a857805473ffffffffffffffffffffffffffffffffffffffff191681556001016108475600a165627a7a72305820375c0bdd8822b06b631e668ba5c7ce77894db21a4d74fa9ec1ff0cf7d881449d0029",
  "source": "pragma solidity ^0.4.17;\r\n\r\n\r\ncontract Voting {\r\n\r\n    struct Proposal {\r\n        string title;\r\n        uint voteCountPos;\r\n        uint voteCountNeg;\r\n        uint voteCountAbs;\r\n        mapping (address => Voter) voters;\r\n        address[] votersAddress;\r\n    }\r\n\r\n    struct Voter {\r\n        uint value;\r\n        bool voted;\r\n    }\r\n\r\n    Proposal[] public proposals;\r\n\r\n    event CreatedProposalEvent();\r\n    event CreatedVoteEvent();\r\n\r\n    function getNumProposals() public view returns (uint) {\r\n        return proposals.length;\r\n    }\r\n\r\n    function getProposal(uint proposalInt) public view returns (uint, string, uint, uint, uint, address[]) {\r\n        if (proposals.length > 0) {\r\n            Proposal storage p = proposals[proposalInt]; // Get the proposal\r\n            return (proposalInt, p.title, p.voteCountPos, p.voteCountNeg, p.voteCountAbs, p.votersAddress);\r\n        }\r\n    }\r\n\r\n    function addProposal(string title) public returns (bool) {\r\n        Proposal memory proposal;\r\n        CreatedProposalEvent();\r\n        proposal.title = title;\r\n        proposals.push(proposal);\r\n        return true;\r\n    }\r\n\r\n    function vote(uint proposalInt, uint voteValue) public returns (bool) {\r\n        if (proposals[proposalInt].voters[msg.sender].voted == false) { // check duplicate key\r\n            require(voteValue == 1 || voteValue == 2 || voteValue == 3); // check voteValue\r\n            Proposal storage p = proposals[proposalInt]; // Get the proposal\r\n            if (voteValue == 1) {\r\n                p.voteCountPos += 1;\r\n            } else if (voteValue == 2) {\r\n                p.voteCountNeg += 1;\r\n            } else {\r\n                p.voteCountAbs += 1;\r\n            }\r\n            p.voters[msg.sender].value = voteValue;\r\n            p.voters[msg.sender].voted = true;\r\n            p.votersAddress.push(msg.sender);\r\n            CreatedVoteEvent();\r\n            return true;\r\n        } else {\r\n            return false;\r\n        }\r\n    }\r\n\r\n}\r\n",
  "sourcePath": "D:\\Personal\\truffle-voting-dapp\\truffle-voting-dapp-ropsten\\contracts\\Voting.sol",
  "compiler": {
    "name": "solc",
    "version": "0.4.24+commit.e67f0147.Emscripten.clang"
  },
  "schemaVersion": "2.0.1",
  "updatedAt": "2018-06-27T03:16:31.587Z"
}